:100000003FC0A7C158C057C056C055C054C053C008
:1000100052C051C050C04FC04EC04DC04CC04BC06C
:100020004AC049C048C009021200010100801909F4
:10003000040000000000000012011001FF00000891
:10004000C016DC050401010200010E035500530037
:1000500042006100730070001C0377007700770096
:100060002E00660069007300630068006C002E00BB
:100070006400650004030904FF88D8CD45AB8912EC
:1000800011241FBECFE5D4E0DEBFCDBF10E0A0E657
:10009000B0E0E0EEF9E102C005900D92A236B107A2
:1000A000D9F721E0A2E6B0E001C01D92AC32B20760
:1000B000E1F760DC93CCA4CFCF93DF9360910A018A
:1000C000635067FD14C0209107018CE090E0821B13
:1000D0009109EC01C25FDE4F809106018D3209F477
:1000E00051C08091620087FD91C010920A018091F9
:1000F000610084FF3AC0C0916000CF3FB1F1C930C8
:1001000008F468C088EF8C0F809360009091FA002B
:1001100088E889278093FA00C8E08091620087FD13
:100120009DC0209108013091090186FF66C0ABEFA8
:10013000B0E0F9018C2F94919D9331968150D9F7BD
:100140008FEF8C0F90E00196280F391F3093090133
:10015000209308016C2F8BEF90E0F7D084E08C0F98
:100160008C3009F046C08093610094E186B38370BF
:1001700031F49150D9F710920B0110920501DF91E3
:10018000CF910895683009F0B0CF83EC8093FA00E6
:100190008AE580936100109262008881807609F080
:1001A0003FC08A81109203019981911144C010923D
:1001B000040123E031E082E030930901209308013B
:1001C0009F81911104C09E81981708F4892F809314
:1001D00060008BCF109260009091FA0088E8892728
:1001E0008093FA00C11199CF60E08BEF90E0ADD021
:1001F00084E09FEF90936000B6CFD901EBEFF0E081
:100200008C2F9D9191938150E1F79ACFCE0106D723
:100210008F3F01F1882309F468CF1092600065CF09
:10022000CE0196D48F3F61F6988197FD2CC090E85F
:1002300090936200CCCF953001F1963031F1983037
:1002400081F1993091F181E09A3009F080E023E06A
:1002500031E0B2CF8EE18093610047CF6C2F8BEFFE
:1002600090E023D6C82F893008F474CF8FEF8093A5
:1002700060008EE18093610078CF80930B0123E0D2
:1002800031E080E099CF8E81D2CF9B819130D9F03F
:10029000923089F09330F9F080E090E4909362001E
:1002A0008FCF2DE031E081E087CF80930D0123E0F7
:1002B00031E080E081CF86E290E090930901809365
:1002C000080182E1EACF88E390E0909309018093EE
:1002D000080182E1E2CF811108C084E790E09093A9
:1002E00009018093080184E0D8CF813051F0823039
:1002F00099F68AE490E090930901809308018EE0DA
:10030000CCCF88E590E090930901809308018CE1BF
:10031000C4CF85B7836085BF8BB780648BBF0895DA
:10032000A82FB92F80E090E041E050EA609530E0DE
:1003300009C02D9182279795879510F084279527DE
:10034000305EC8F36F5FA8F30895EADF8D939D9345
:100350000895CF93CFB7CF93C395B09BE9F7B09BE8
:1003600009C0B09B07C0B09B05C0B09B03C0B09B49
:1003700001C0A1C0DF93C0910701DD27C25FDE4F3E
:10038000B09B02C0DF91EBCF2F930F931F9306B367
:100390002FEF00FB20F94F933F9316B34FEF012748
:1003A00000FB21F93BE031C04E7F012F16B32160E5
:1003B00028C0102F4D7F2260000006B329C04B7F5C
:1003C0002460012F000016B32BC016B3477F2860AE
:1003D0002AC04F7E06B320612CC04F7D16B3206229
:1003E0002FC04F7B06B3206432C0422706B3499327
:1003F0004FEF0000102710FB20F916B31370C9F15E
:10040000297F91F2012700FB21F906B3237F89F2AE
:10041000315058F1102710FB22F916B3277E79F2DC
:10042000012700FB23F92F7C81F206B3102710FB74
:1004300024F92F7971F200C016B3012700FB25F9CA
:100440002F7359F200C006B3102710FB26F9223093
:1004500040F200C016B3012700FB27F9243028F62C
:100460004F77206816B30000F9CF10E41ABF0027B9
:1004700017C03B503195C31BD04010E41ABF088110
:10048000033CE9F00B34D9F0209105011981110FDB
:100490001213EDCF093641F10D3211F0013E39F75B
:1004A00000930C013F914F911F910F912F91DF917C
:1004B000CAB7C6FD51CFCF91CFBFCF91189520912C
:1004C0000C01222379F310910A01112311F5343024
:1004D00012F130930A0120930601109107013BE0CD
:1004E000311B3093070117C000910A0101308CF4D1
:1004F0000AE53091610034FD10C000936100CAEF3D
:10050000D0E00FC02795A8F45150A9F4220F0000A5
:10051000F9CF4AE503C042ED01C0432FC4E1D0E06A
:1005200032E017B31360C09A17BB08B320E413E09E
:100530005F93012756E008BB279520F4515021F422
:10054000220FF9CF012756E000003B5A08BBD0F23A
:10055000279528F4515029F4220F0000F9CF0127E4
:1005600056E0279508BB20F4515021F4220FF9CF13
:10057000012756E02991332308BB21F60C7F109107
:100580000B01110FC651D04008BB11F010930501AB
:1005900010E41ABF016017B31C7F402F4C7F5F919E
:1005A00000C000C008BB17BB48BB7CCF582F48E039
:1005B00080E057FD18C0C398550F880FB4998F5F1E
:1005C000C59A32B72091290192B7931B9217E0F395
:1005D000C59832B72091290192B7931B9217E0F387
:1005E000415039F70895C39AE7CF8FB9779BFECF73
:1005F0008FB10895DC01CB0121E1B695A7959795C0
:1006000087952A95D1F7209128012817D9F0809352
:100610002801E0912501F09126018DE40995E091F2
:100620002501F091260180E00995E0912501F091E6
:100630002601809128010995E0912501F09126017C
:1006400080E009940895809127018DB9809124015B
:100650008EB908958823A1F08830D0F526ED32E0D8
:1006600030932601209325018430F1F008F1863083
:10067000C1F030F18730A1F483E08093290108951F
:1006800085EF92E0909326018093250181E080938D
:10069000290182E58093270181E080932401089558
:1006A00080EC80932901089588E1809329010895C1
:1006B000823051F08330A1F780E3809329010895BF
:1006C0008CE080932901089580E6809329010895A4
:1006D00025EF32E03093260120932501109224016A
:1006E00091E090932901893059F070F08B3021F01E
:1006F0008C3079F69093240181E580932701089549
:1007000082E5809327010895883019F683E5809368
:100710002701089522B79091290182B7821B89177A
:10072000E0F3089587B38C6287BBC298C59822B75F
:100730009091290182B7821B8917E0F3C29A22B7F0
:100740009091290182B7821B8917E0F3C2988091AA
:10075000250190912601855F924019F010922801A1
:100760000895809127018DB9809124018EB910924E
:100770002801089587B3837D87BB88B3837D88BBB9
:100780001DB80895CF93DF93C0E2E0912501F09169
:1007900026018CEA0995E0912501F091260183E577
:1007A0000995E0912501F091260180E00995D82F67
:1007B000E0912501F091260180E00995D33561F1A2
:1007C0001DB822B79091290182B7821B8917E0F3E7
:1007D000C29A22B79091290182B7821B8917E0F350
:1007E000C29822B79091290182B7821B8917E0F342
:1007F0008091250190912601855F924031F0C15092
:1008000021F681E0DF91CF910895809127018DB984
:10081000809124018EB9F3CF80E0DF91CF910895CC
:10082000CF92DF92EF92FF926B017C01E3DE8C2D81
:100830008170880F880F880FE0912501F0912601C3
:1008400080620995D701C60129E0B695A7959795CD
:1008500087952A95D1F7E0912501F0912601099518
:10086000D701C601B695A79597958795E091250183
:10087000F09126010995E0912501F091260180E093
:10088000FF90EF90DF90CF900994CF92DF92EF929C
:10089000FF92CF93DF936B017C01C42FD22FAADE8E
:1008A0008C2D8170880F880F880FE0912501F091C1
:1008B000260180640995D701C60129E0B695A79560
:1008C000979587952A95D1F7E0912501F09126011A
:1008D0000995D701C601B695A79597958795E0919B
:1008E0002501F09126010995E0912501F09126015D
:1008F0008C2F0995DD23D1F0CF37B1F0D2B7CEE1FF
:10090000C701B6018DDF8F3789F482B78D1B8D3318
:10091000B8F3D2B7C150A1F781E0DF91CF91FF903A
:10092000EF90DF90CF9008958FE09DD080E0DF9131
:10093000CF91FF90EF90DF90CF900895CF92DF920C
:10094000EF92FF92CF93DF936B017C01C42F52DEB5
:10095000E0912501F09126018CE40995D701C601AB
:1009600029E0B695A795979587952A95D1F7E091B7
:100970002501F09126010995D701C601B695A795E5
:1009800097958795E0912501F09126010995E091D1
:100990002501F091260180E00995CF3FF1F0D2B713
:1009A000CEE1C701B6013CDF8F3F79F482B78D1BE2
:1009B0008D33B8F3D2B7C150A1F781E0DF91CF9169
:1009C000FF90EF90DF90CF90089580E0DF91CF917E
:1009D000FF90EF90DF90CF9008958FE044D080E0BB
:1009E000EDCFCF93DF93EC01E0912501F09126014B
:1009F00080EA0995E0912501F09126018D2F099556
:100A0000E0912501F09126018C2F0995E0912501B7
:100A1000F091260180E0DF91CF9109941F93CF934D
:100A2000DF93D82F192FC62FE0912501F0912601D1
:100A300080EC0995E0912501F0912601812F09951F
:100A4000E0912501F09126018D2F0995E091250176
:100A5000F09126018C2F09958EE105D080E0DF9181
:100A6000CF911F910895882349F030E022B792B7C3
:100A7000921B9C33E0F33F5F8313F8CF0895BD9A38
:100A8000BB98C39A50E217D05A95E9F70895AC0184
:100A900088E605D0842F03D089E601D0852F0FD0BA
:100AA00028E030E0382780FB869506D02A95D1F7DC
:100AB00030FB02D000D06894BB98C39A16F0C3985C
:100AC000BB9AE0912A01F0912B013197F0F7C59A7A
:100AD000E6B3E3FBE0912A01F0912B013197F0F7A7
:100AE000C598089520ECE7DF46F42A95E1F780E009
:100AF0002AE1E5DF2A95E9F7DECF28E030E0DBDF09
:100B0000869587F938272A95D1F7D5DF27F9322737
:100B100072F3D1DFD0CFDB01742FB9DF84E2BFDF06
:100B2000E1DF8D937A95D1F70895DB01742FAFDF64
:100B300083EFB5DF8DE1B3DF84E6B1DF8D91AFDF09
:100B400082E7ADDFCFDF8078D9F77A9589F708950E
:100B5000CF93DF93EC0189818130D1F1823009F4A8
:100B6000A9C0833009F464C08430E9F1873009F406
:100B700084C0853009F4F7C0863009F49FC08830FE
:100B800009F4CEC0893009F4F3C08A3009F41AC1DF
:100B90008B3009F429C18C3009F437C18D3009F448
:100BA00049C18E3009F45BC18F3009F4F2C08F3730
:100BB00009F40FC1813109F456C1823109F46EC1C3
:100BC000843109F43CC1833109F455C180E027C068
:100BD0009A9B50C08091EF003DDD1092EE00A998E5
:100BE000A1DD80E01CC08091EE0081110EC08A81E1
:100BF0009B81092E000CAA0BBB0B8093EA009093FB
:100C0000EB00A093EC00B093ED008E819F81909358
:100C1000E9008093E80082E08093F0008FEF21EFFD
:100C200030E03093090120930801DF91CF910895BE
:100C3000E0912501F09126018A8109958093F100C8
:100C4000E0912501F09126018B8109958093F200B6
:100C5000E0912501F09126018C8109958093F300A4
:100C6000E0912501F09126018D8109958093F40092
:100C700084E0D5CF85E0EEDCB0CF8091EE0081112D
:100C80000EC08A819B81092E000CAA0BBB0B80939E
:100C9000EA009093EB00A093EC00B093ED008E81FE
:100CA0009F819093E9008093E80083E08093F000B7
:100CB0008FEFB5CF5FDDA99A80E0B1CF8091EE00D4
:100CC00081110EC08A819B81092E000CAA0BBB0BDF
:100CD0008093EA009093EB00A093EC00B093ED00BA
:100CE0003C812D81822F8F708093E500822F807F41
:100CF00040E1849FC0011124830F911D9093E70070
:100D00008093E60020FD8093E4008E819F81909384
:100D1000E9008093E80081E08093F0008FEF7FCFBF
:100D20008091EE0081110EC08A819B81092E000CFA
:100D3000AA0BBB0B8093EA009093EB00A093EC000E
:100D4000B093ED001092E7001092E6001092E500DB
:100D50008E819F819093E9008093E80084E08093E6
:100D6000F0008FEF5CCF0EDD8093F10081E057CF74
:100D700081E08093EE008A819B81AC81BD8180936C
:100D8000EA009093EB00A093EC00B093ED0080E0BC
:100D900046CF8A819B81092E000CAA0BBB0B809346
:100DA000EA009093EB00A093EC00B093ED008E81ED
:100DB0009F819093E9008093E80085E08093F000A4
:100DC0008FEF2DCF8A818093EF001092F10081E0A8
:100DD00026CF83E08093F1001092F2001092F3008E
:100DE0001092F40084E01BCF8A819B8190932B01A9
:100DF00080932A01C29ABA9A83E035DEC298A998F4
:100E000080E131DE3CDE80E00ACF80EC48DE80E02D
:100E100046DE8AE028DEC29A85E025DEC29885E0BB
:100E200022DE87B3837D87BB88B3837D88BBA99A85
:100E300080E0F5CE57DE8093F10081E0F0CE8E8128
:100E40009F819093E9008093E8008A818093E50078
:100E500088E08093F000109263008FEFE0CE8A81EB
:100E60001EDE80E0DCCEDED38093F10081111BC05A
:100E7000A99881E0D4CEBE016E5F7F4F44E050E080
:100E80008AEE90E091D58E819F819093E9008093C6
:100E9000E80087E08093F0008FEFC1CEA99A8A81A5
:100EA000BFD280E0BCCE81E0BACEFF920F931F93F9
:100EB000CF93DF938C01F62E2091F000253009F4BA
:100EC00059C0C8F58EEF820F823008F075C06623D6
:100ED00009F47CC08091EA009091EB00A091EC00B5
:100EE000B091ED00E8013FEF360F030F111D1CC05C
:100EF00078DD88838091EA009091EB00A091EC006E
:100F0000B091ED000196A11DB11D8093EA00909370
:100F1000EB00A093EC00B093ED00C017D10709F4EB
:100F200052C02091F0002196223011F7BC01CD0172
:100F300077DC8883DFCF273009F03EC08FD143D2E2
:100F40008091F900811168C06091EA007091EB0016
:100F50008091EC009091ED002F2DA8014AD4C82F6C
:100F600075D1CC23E1F180E0DF91CF911F910F91FA
:100F7000FF900895462FBC018091EA009091EB000C
:100F8000CADD8091EA009091EB00A091EC00B09155
:100F9000ED008F0D911DA11DB11D8093EA0090936E
:100FA000EB00A093EC00B093ED008F2DDF91CF917B
:100FB0001F910F91FF9008958FEFDF91CF911F91B7
:100FC0000F91FF90089587E08F1520F11092F000A7
:100FD0008F2DDF91CF911F910F91FF9008958091F8
:100FE000EA009091EB00A091EC00B091ED008F0D24
:100FF000911DA11DB11D8093EA009093EB00A09379
:10100000EC00B093ED008F2DDF91CF911F910F91E8
:10101000FF9008958F2DCACFE1D296CFEF92FF9225
:101020000F931F93CF93DF93382F792F162F209193
:10103000F000243009F465C008F459C0263031F1BD
:10104000283009F056C0E62EF12CC09163008C2F99
:1010500090E0A701632F8C599F4FA6D41C0F1093CB
:1010600063008091E8009091E9008E199F099093A8
:10107000E9008093E800892B09F4D0C080E0DF917B
:10108000CF911F910F91FF90EF900895462F682FF9
:101090008091EA009091EB0048DD8091EA00909108
:1010A000EB00A091EC00B091ED00810F911DA11D0E
:1010B000B11D8093EA009093EB00A093EC00B093F5
:1010C000ED008091E8009091E900811B91099093D7
:1010D000E9008093E800892B89F61092F00081E006
:1010E000DF91CF911F910F91FF90EF9008952130E4
:1010F00041F08FEFDF91CF911F910F91FF90EF9013
:101100000895112309F4BACF8091EA009091EB0081
:10111000A091EC00B091ED00C32FD72F1150AE017C
:10112000410F511D8A01F12C4DC02091E6003091F4
:10113000E700232B09F04FC021E04881BC01CD011D
:10114000A4DB2091E8003091E9002150310930936F
:10115000E9002093E800232BE1F41092F000809145
:10116000E50081FF35C08091E40090E02091E60029
:101170003091E7008217930759F16091EA0070916E
:10118000EB008091EC009091ED004881D7DBFF24CB
:10119000F3948091EA009091EB00A091EC00B09163
:1011A000ED000196A11DB11D8093EA009093EB0024
:1011B000A093EC00B093ED00C017D10739F1209156
:1011C000F0002196213009F4B0CF688127DCB9CF37
:1011D000FF24F394DECF20E04881BC01CD0155DB34
:1011E0008091E40081508093E4008111AACF609146
:1011F000EA007091EB008091EC009091ED00488145
:101200009DDB8091E6008093E4009BCF8F2DDF91E2
:10121000CF911F910F91FF90EF9008951FD0D3D0E1
:101220008091E50080FF04C08091F9008111D6D142
:101230006091630084E690E0DBD08091E50081FF5F
:1012400003C081E08093F90001D047CFC59AC298CE
:1012500087B3846287BB89E185BD0895C59AC2982A
:1012600087B3846287BB89E085BD089585B58071A9
:101270000895C39A0895C3980895C59AC29887B3EC
:10128000846287BB089588B38B7D88BB87B38462F3
:1012900087BB0895C29887B38B7D87BBC598089597
:1012A00086B3829581700895082E82958025082E38
:1012B0008695869580258F5F869581700895C39861
:1012C00060FF7AC0C59AC29897B3946297BB4CE00E
:1012D0004A95F1F7C39A9CE09A95F1F728E030E03F
:1012E00091E010C0C59AC29847B3446247BB4CE036
:1012F0004A95F1F7C39A4CE04A95F1F7990F2150BE
:10130000310959F0C398482F492361F748B34B7D01
:1013100048BB47B3446247BBEACFC39861FF45C0AF
:10132000C59AC29887B3846287BB8CE08A95F1F72F
:10133000C39A9CE09A95F1F7C39862FF1AC0C59AC8
:10134000C29887B3846287BB4CE04A95F1F7C39A91
:101350008CE08A95F1F7C398C59AC29887B38462E6
:1013600087BB8CE08A95F1F7C39A9CE09A95F1F7D8
:10137000089588B38B7D88BB87B3846287BB9CE06C
:101380009A95F1F7C39A4CE04A95F1F7C39888B360
:101390008B7D88BB87B3846287BB8CE08A95F1F72D
:1013A000C39A9CE09A95F1F7089588B38B7D88BB2A
:1013B00087B3846287BBB9CF98B39B7D98BB97B343
:1013C000946297BB84CF6FEF8FEF79CF60E080E0BE
:1013D00076CF982F092E92959025092E9695969561
:1013E00090259F5F91FF02C066E069CF64E067CF00
:1013F0000F931F93CF93DF93EC01662361F061504D
:10140000062F10E00F5F1F4F080F191F8991E1DFB2
:10141000C017D107D9F7DF91CF911F910F91089590
:10142000CF93C82FC59AC29887B3846287BB89E0DF
:1014300085BD6FEF8FEF43DF81ECCBDF80E0C9DF4D
:1014400087B3837C87BB88B3837C88BBC13069F05A
:10145000C23049F4BB9AC39887EB9BE00197F1F740
:1014600000C00000C39ACF910895BB9AC398CF9152
:10147000089511C0C398C29897B39B7D97BBC59838
:101480002CE02A95F1F7C39A96B34CE04A95F1F710
:1014900094FF05C081508111EDCF81E0089588E06F
:1014A00090E030E021E0C398ECE0EA95F1F7C39AD0
:1014B000B499322BFCE0FA95F1F7220F019799F7D6
:1014C000FB013083C398FCE0FA95F1F7C39A86B329
:1014D0002CE02A95F1F7032E32953025032E369510
:1014E00036953025829581703F5F36953170831730
:1014F00091F0C3989CE09A95F1F7C39A82E0ECE0F2
:10150000EA95F1F7C398FCE0FA95F1F7C39A4CE03D
:101510004A95F1F70895C3988CE08A95F1F7C39A3C
:10152000B49902C083E0EBCF2CE02A95F1F7C39881
:101530004CE04A95F1F7C39AB49905C083E04CE0BA
:101540004A95F1F7089580E04CE04A95F1F7089547
:10155000CF92DF92EF92FF920F931F93CF93DF937F
:1015600000D000D01F92CDB7DEB76A012CE02983EE
:101570006A837B838C839D838E010E5F1F4F7E0168
:1015800086E0E80EF11C8CE024DF0E151F0539F013
:10159000F80181918F011DDF0E151F05C9F7B601F6
:1015A00088EC67DF182F60E080E089DE6FEF8FEF57
:1015B00086DE60E080E083DE6FEF8FEF80DE812FDC
:1015C0000F900F900F900F900F90DF91CF911F9180
:1015D0000F91FF90EF90DF90CF9008951F93CF93DE
:1015E000DF931F92CDB7DEB714E602C01150A1F011
:1015F000AE014F5F5F4F6FEC71E080E091E0A8DFDC
:101600008111F4CF998197FDF1CF1092F9000F90DD
:10161000DF91CF911F91089584E00F90DF91CF91DA
:101620001F910895EF92FF920F931F93CF93DF9333
:10163000CDB7DEB729970FB6F894DEBF0FBECDBF8A
:1016400089E085BD80E283BDC39A88B38B7C88BB6B
:1016500087B38C6087BB87B38F7C87BBC39888B305
:101660008B7D88BB87B3846287BB89E491E0019757
:10167000F1F700C00000C59AC29887B3846287BBA7
:10168000C39A94E09A95F1F76FEF8FEF18DE6FEF42
:101690008FEF15DE81EC9DDE89E59BDE80EE898390
:1016A00048E050E068E770E0CE01029674D18E0108
:1016B0000F5F1F4FFE013A967F01F80181918F0164
:1016C00088DE0E151F05C9F76FEF8FEFF8DD82EC8E
:1016D00080DE83E07EDE6FEF8FEFF1DD7FDF811153
:1016E00007C0C59AC29897B3946297BB99E195BD1C
:1016F00029960FB6F894DEBF0FBECDBFDF91CF9114
:101700001F910F91FF90EF900895EF92FF920F932A
:101710001F93CF93DF9300D000D000D0CDB7DEB7BA
:101720002CE429836A837B838C839D834E838E0183
:101730000E5F1F4F7E0187E0E80EF11C8CE403C0B2
:10174000F80181918F0145DE0E151F05C9F780E074
:1017500026960FB6F894DEBF0FBECDBFDF91CF91B6
:101760001F910F91FF90EF900895CF93811108C0C2
:10177000C0E081EC2EDE8C2F2CDE80E0CF9108952E
:10178000C9E581EC26DE8C2F24DE80E0CF91089520
:10179000EF92FF920F931F93CF93DF9300D000D06F
:1017A0001F92CDB7DEB72BE629836A837B838C83B8
:1017B0009D838E010E5F1F4F7E0186E0E80EF11CB7
:1017C0008BE607DE0E151F0539F0F80181918F01B8
:1017D00000DE0E151F05C9F780E00F900F900F90E7
:1017E0000F900F90DF91CF911F910F91FF90EF908D
:1017F00008952F923F924F925F926F927F928F92B5
:101800009F92AF92BF92CF92DF92EF92FF920F938F
:101810001F93CF93DF93CDB7DEB728970FB6F89419
:10182000DEBF0FBECDBF2B013C011A012F8384E127
:10183000E82EF12CCE0107966C01DE0116965D01B3
:10184000B22FB150B887ECE4E9838AEC91E0A0E0D4
:10185000B1E08A839B83AC83BD8393E49E838E0136
:101860000E5F1F4F8CE403C0D8018D918D01B1DD57
:10187000C016D106C9F7BBE6B9834A825B826C8287
:101880007D828E010E5F1F4F8BE6A3DDA016B10691
:1018900039F0F80181918F019CDDA016B106C9F7DE
:1018A000FF81F23008F445C080EA93DD888591DD40
:1018B00084E28FDD9885892E912CAFEF8A1A9A0ADF
:1018C000820C931C810106C00F5F1F4F081519057C
:1018D00009F443C0B80188ECCCDDF82E8823A1F3CD
:1018E00060E080E0ECDC6FEF8FEFE9DC60E080E04F
:1018F000E6DC6FEF8FEFE3DCEA94E110A4CF8F2DED
:1019000028960FB6F894DEBF0FBECDBFDF91CF9102
:101910001F910F91FF90EF90DF90CF90BF90AF900D
:101920009F908F907F906F905F904F903F902F90FF
:10193000089584E24EDD8F818111BCCF60E080E0AC
:10194000BEDC6FEF8FEFBBDC60E080E0B8DC6FEFF8
:101950008FEFB5DCF110D0CFD2CF60E080E0AFDC0C
:101960006FEF8FEFACDC60E080E0A9DC6FEF8FEF12
:10197000A6DCC5CF12BA18BA8BEF81BB8FEF87BB3D
:1019800017BA83E084BB9EEF95BB83BFC2D4789423
:1019900093D392D3FDCFFB01DC0102C005900D92E1
:1019A00041505040D8F708956817790768F4FB0153
:1019B000DC01E40FF51FA40FB51F02C002900E92C8
:1019C00041505040D8F7089500C0FB01DC0102C02F
:1019D00001900D9241505040D8F70895F894FFCFF0
:0219E000FF5AAC
:00000001FF
